{
  "_format": "hh-sol-artifact-1",
  "contractName": "ChainBattles",
  "sourceName": "contracts/ChainBattles.sol",
  "abi": [
    {
      "inputs": [],
      "stateMutability": "nonpayable",
      "type": "constructor"
    },
    {
      "anonymous": false,
      "inputs": [
        {
          "indexed": true,
          "internalType": "address",
          "name": "owner",
          "type": "address"
        },
        {
          "indexed": true,
          "internalType": "address",
          "name": "approved",
          "type": "address"
        },
        {
          "indexed": true,
          "internalType": "uint256",
          "name": "tokenId",
          "type": "uint256"
        }
      ],
      "name": "Approval",
      "type": "event"
    },
    {
      "anonymous": false,
      "inputs": [
        {
          "indexed": true,
          "internalType": "address",
          "name": "owner",
          "type": "address"
        },
        {
          "indexed": true,
          "internalType": "address",
          "name": "operator",
          "type": "address"
        },
        {
          "indexed": false,
          "internalType": "bool",
          "name": "approved",
          "type": "bool"
        }
      ],
      "name": "ApprovalForAll",
      "type": "event"
    },
    {
      "anonymous": false,
      "inputs": [
        {
          "indexed": true,
          "internalType": "address",
          "name": "from",
          "type": "address"
        },
        {
          "indexed": true,
          "internalType": "address",
          "name": "to",
          "type": "address"
        },
        {
          "indexed": true,
          "internalType": "uint256",
          "name": "tokenId",
          "type": "uint256"
        }
      ],
      "name": "Transfer",
      "type": "event"
    },
    {
      "inputs": [
        {
          "internalType": "address",
          "name": "to",
          "type": "address"
        },
        {
          "internalType": "uint256",
          "name": "tokenId",
          "type": "uint256"
        }
      ],
      "name": "approve",
      "outputs": [],
      "stateMutability": "nonpayable",
      "type": "function"
    },
    {
      "inputs": [
        {
          "internalType": "address",
          "name": "owner",
          "type": "address"
        }
      ],
      "name": "balanceOf",
      "outputs": [
        {
          "internalType": "uint256",
          "name": "",
          "type": "uint256"
        }
      ],
      "stateMutability": "view",
      "type": "function"
    },
    {
      "inputs": [
        {
          "internalType": "uint256",
          "name": "tokenId",
          "type": "uint256"
        }
      ],
      "name": "generateCharacter",
      "outputs": [
        {
          "internalType": "string",
          "name": "",
          "type": "string"
        }
      ],
      "stateMutability": "view",
      "type": "function"
    },
    {
      "inputs": [
        {
          "internalType": "uint256",
          "name": "tokenId",
          "type": "uint256"
        }
      ],
      "name": "getApproved",
      "outputs": [
        {
          "internalType": "address",
          "name": "",
          "type": "address"
        }
      ],
      "stateMutability": "view",
      "type": "function"
    },
    {
      "inputs": [
        {
          "internalType": "uint256",
          "name": "tokenId",
          "type": "uint256"
        }
      ],
      "name": "getInfo",
      "outputs": [
        {
          "components": [
            {
              "internalType": "string",
              "name": "name",
              "type": "string"
            },
            {
              "internalType": "uint256",
              "name": "level",
              "type": "uint256"
            },
            {
              "internalType": "uint256",
              "name": "speed",
              "type": "uint256"
            },
            {
              "internalType": "uint256",
              "name": "strength",
              "type": "uint256"
            },
            {
              "internalType": "uint256",
              "name": "life",
              "type": "uint256"
            }
          ],
          "internalType": "struct ChainBattles.Specification",
          "name": "",
          "type": "tuple"
        }
      ],
      "stateMutability": "view",
      "type": "function"
    },
    {
      "inputs": [
        {
          "internalType": "uint256",
          "name": "tokenId",
          "type": "uint256"
        }
      ],
      "name": "getLevel",
      "outputs": [
        {
          "internalType": "string",
          "name": "",
          "type": "string"
        }
      ],
      "stateMutability": "view",
      "type": "function"
    },
    {
      "inputs": [
        {
          "internalType": "uint256",
          "name": "tokenId",
          "type": "uint256"
        }
      ],
      "name": "getLife",
      "outputs": [
        {
          "internalType": "string",
          "name": "",
          "type": "string"
        }
      ],
      "stateMutability": "view",
      "type": "function"
    },
    {
      "inputs": [
        {
          "internalType": "uint256",
          "name": "tokenId",
          "type": "uint256"
        }
      ],
      "name": "getName",
      "outputs": [
        {
          "internalType": "string",
          "name": "",
          "type": "string"
        }
      ],
      "stateMutability": "view",
      "type": "function"
    },
    {
      "inputs": [
        {
          "internalType": "uint256",
          "name": "tokenId",
          "type": "uint256"
        }
      ],
      "name": "getSpeed",
      "outputs": [
        {
          "internalType": "string",
          "name": "",
          "type": "string"
        }
      ],
      "stateMutability": "view",
      "type": "function"
    },
    {
      "inputs": [
        {
          "internalType": "uint256",
          "name": "tokenId",
          "type": "uint256"
        }
      ],
      "name": "getStrength",
      "outputs": [
        {
          "internalType": "string",
          "name": "",
          "type": "string"
        }
      ],
      "stateMutability": "view",
      "type": "function"
    },
    {
      "inputs": [
        {
          "internalType": "uint256",
          "name": "tokenId",
          "type": "uint256"
        }
      ],
      "name": "getTokenURI",
      "outputs": [
        {
          "internalType": "string",
          "name": "",
          "type": "string"
        }
      ],
      "stateMutability": "view",
      "type": "function"
    },
    {
      "inputs": [
        {
          "internalType": "address",
          "name": "owner",
          "type": "address"
        },
        {
          "internalType": "address",
          "name": "operator",
          "type": "address"
        }
      ],
      "name": "isApprovedForAll",
      "outputs": [
        {
          "internalType": "bool",
          "name": "",
          "type": "bool"
        }
      ],
      "stateMutability": "view",
      "type": "function"
    },
    {
      "inputs": [
        {
          "internalType": "string",
          "name": "_name",
          "type": "string"
        }
      ],
      "name": "mint",
      "outputs": [],
      "stateMutability": "nonpayable",
      "type": "function"
    },
    {
      "inputs": [],
      "name": "name",
      "outputs": [
        {
          "internalType": "string",
          "name": "",
          "type": "string"
        }
      ],
      "stateMutability": "view",
      "type": "function"
    },
    {
      "inputs": [
        {
          "internalType": "uint256",
          "name": "tokenId",
          "type": "uint256"
        }
      ],
      "name": "ownerOf",
      "outputs": [
        {
          "internalType": "address",
          "name": "",
          "type": "address"
        }
      ],
      "stateMutability": "view",
      "type": "function"
    },
    {
      "inputs": [
        {
          "internalType": "address",
          "name": "from",
          "type": "address"
        },
        {
          "internalType": "address",
          "name": "to",
          "type": "address"
        },
        {
          "internalType": "uint256",
          "name": "tokenId",
          "type": "uint256"
        }
      ],
      "name": "safeTransferFrom",
      "outputs": [],
      "stateMutability": "nonpayable",
      "type": "function"
    },
    {
      "inputs": [
        {
          "internalType": "address",
          "name": "from",
          "type": "address"
        },
        {
          "internalType": "address",
          "name": "to",
          "type": "address"
        },
        {
          "internalType": "uint256",
          "name": "tokenId",
          "type": "uint256"
        },
        {
          "internalType": "bytes",
          "name": "data",
          "type": "bytes"
        }
      ],
      "name": "safeTransferFrom",
      "outputs": [],
      "stateMutability": "nonpayable",
      "type": "function"
    },
    {
      "inputs": [
        {
          "internalType": "address",
          "name": "operator",
          "type": "address"
        },
        {
          "internalType": "bool",
          "name": "approved",
          "type": "bool"
        }
      ],
      "name": "setApprovalForAll",
      "outputs": [],
      "stateMutability": "nonpayable",
      "type": "function"
    },
    {
      "inputs": [
        {
          "internalType": "bytes4",
          "name": "interfaceId",
          "type": "bytes4"
        }
      ],
      "name": "supportsInterface",
      "outputs": [
        {
          "internalType": "bool",
          "name": "",
          "type": "bool"
        }
      ],
      "stateMutability": "view",
      "type": "function"
    },
    {
      "inputs": [],
      "name": "symbol",
      "outputs": [
        {
          "internalType": "string",
          "name": "",
          "type": "string"
        }
      ],
      "stateMutability": "view",
      "type": "function"
    },
    {
      "inputs": [
        {
          "internalType": "uint256",
          "name": "",
          "type": "uint256"
        }
      ],
      "name": "tokenIdToSpecifications",
      "outputs": [
        {
          "internalType": "string",
          "name": "name",
          "type": "string"
        },
        {
          "internalType": "uint256",
          "name": "level",
          "type": "uint256"
        },
        {
          "internalType": "uint256",
          "name": "speed",
          "type": "uint256"
        },
        {
          "internalType": "uint256",
          "name": "strength",
          "type": "uint256"
        },
        {
          "internalType": "uint256",
          "name": "life",
          "type": "uint256"
        }
      ],
      "stateMutability": "view",
      "type": "function"
    },
    {
      "inputs": [
        {
          "internalType": "uint256",
          "name": "tokenId",
          "type": "uint256"
        }
      ],
      "name": "tokenURI",
      "outputs": [
        {
          "internalType": "string",
          "name": "",
          "type": "string"
        }
      ],
      "stateMutability": "view",
      "type": "function"
    },
    {
      "inputs": [
        {
          "internalType": "uint256",
          "name": "tokenId",
          "type": "uint256"
        }
      ],
      "name": "train",
      "outputs": [],
      "stateMutability": "nonpayable",
      "type": "function"
    },
    {
      "inputs": [
        {
          "internalType": "address",
          "name": "from",
          "type": "address"
        },
        {
          "internalType": "address",
          "name": "to",
          "type": "address"
        },
        {
          "internalType": "uint256",
          "name": "tokenId",
          "type": "uint256"
        }
      ],
      "name": "transferFrom",
      "outputs": [],
      "stateMutability": "nonpayable",
      "type": "function"
    }
  ],
  "bytecode": "0x60806040523480156200001157600080fd5b506040518060400160405280600d81526020017f436861696e20426174746c6573000000000000000000000000000000000000008152506040518060400160405280600581526020017f4342544c53000000000000000000000000000000000000000000000000000000815250816000908051906020019062000096929190620000b8565b508060019080519060200190620000af929190620000b8565b505050620001cd565b828054620000c69062000197565b90600052602060002090601f016020900481019282620000ea576000855562000136565b82601f106200010557805160ff191683800117855562000136565b8280016001018555821562000136579182015b828111156200013557825182559160200191906001019062000118565b5b50905062000145919062000149565b5090565b5b80821115620001645760008160009055506001016200014a565b5090565b7f4e487b7100000000000000000000000000000000000000000000000000000000600052602260045260246000fd5b60006002820490506001821680620001b057607f821691505b60208210811415620001c757620001c662000168565b5b50919050565b6144fb80620001dd6000396000f3fe608060405234801561001057600080fd5b50600436106101585760003560e01c80635b0c6168116100c3578063a22cb4651161007c578063a22cb4651461044d578063b88d4fde14610469578063c87b56dd14610485578063d85d3d27146104b5578063e53fbda6146104d1578063e985e9c51461050157610158565b80635b0c61681461033b5780636352211e1461036f5780636b8ff5741461039f57806370a08231146103cf57806386481d40146103ff57806395d89b411461042f57610158565b80631a3cd59a116101155780631a3cd59a1461025757806323b872dd14610287578063368004ed146102a35780633bb3a24d146102bf57806342842e0e146102ef5780634b93f7531461030b57610158565b806301ffc9a71461015d57806306fdde031461018d578063081812fc146101ab578063095ea7b3146101db5780630daefed5146101f757806311251f1c14610227575b600080fd5b610177600480360381019061017291906120c2565b610531565b604051610184919061210a565b60405180910390f35b610195610613565b6040516101a291906121be565b60405180910390f35b6101c560048036038101906101c09190612216565b6106a5565b6040516101d29190612284565b60405180910390f35b6101f560048036038101906101f091906122cb565b6106eb565b005b610211600480360381019061020c9190612216565b610803565b60405161021e91906121be565b60405180910390f35b610241600480360381019061023c9190612216565b610889565b60405161024e91906121be565b60405180910390f35b610271600480360381019061026c9190612216565b6108b7565b60405161027e91906123da565b60405180910390f35b6102a1600480360381019061029c91906123fc565b6109a7565b005b6102bd60048036038101906102b89190612216565b610a07565b005b6102d960048036038101906102d49190612216565b610b4e565b6040516102e691906121be565b60405180910390f35b610309600480360381019061030491906123fc565b610bb6565b005b61032560048036038101906103209190612216565b610bd6565b60405161033291906121be565b60405180910390f35b61035560048036038101906103509190612216565b610c04565b60405161036695949392919061245e565b60405180910390f35b61038960048036038101906103849190612216565b610cc2565b6040516103969190612284565b60405180910390f35b6103b960048036038101906103b49190612216565b610d74565b6040516103c691906121be565b60405180910390f35b6103e960048036038101906103e491906124b8565b610e22565b6040516103f691906124e5565b60405180910390f35b61041960048036038101906104149190612216565b610eda565b60405161042691906121be565b60405180910390f35b610437610f08565b60405161044491906121be565b60405180910390f35b6104676004803603810190610462919061252c565b610f9a565b005b610483600480360381019061047e91906126a1565b610fb0565b005b61049f600480360381019061049a9190612216565b611012565b6040516104ac91906121be565b60405180910390f35b6104cf60048036038101906104ca91906127c5565b61102d565b005b6104eb60048036038101906104e69190612216565b6110d9565b6040516104f891906121be565b60405180910390f35b61051b6004803603810190610516919061280e565b611107565b604051610528919061210a565b60405180910390f35b60007f80ac58cd000000000000000000000000000000000000000000000000000000007bffffffffffffffffffffffffffffffffffffffffffffffffffffffff1916827bffffffffffffffffffffffffffffffffffffffffffffffffffffffff191614806105fc57507f5b5e139f000000000000000000000000000000000000000000000000000000007bffffffffffffffffffffffffffffffffffffffffffffffffffffffff1916827bffffffffffffffffffffffffffffffffffffffffffffffffffffffff1916145b8061060c575061060b8261119b565b5b9050919050565b6060600080546106229061287d565b80601f016020809104026020016040519081016040528092919081815260200182805461064e9061287d565b801561069b5780601f106106705761010080835404028352916020019161069b565b820191906000526020600020905b81548152906001019060200180831161067e57829003601f168201915b5050505050905090565b60006106b082611205565b6004600083815260200190815260200160002060009054906101000a900473ffffffffffffffffffffffffffffffffffffffff169050919050565b60006106f682610cc2565b90508073ffffffffffffffffffffffffffffffffffffffff168373ffffffffffffffffffffffffffffffffffffffff161415610767576040517f08c379a000000000000000000000000000000000000000000000000000000000815260040161075e90612921565b60405180910390fd5b8073ffffffffffffffffffffffffffffffffffffffff16610786611250565b73ffffffffffffffffffffffffffffffffffffffff1614806107b557506107b4816107af611250565b611107565b5b6107f4576040517f08c379a00000000000000000000000000000000000000000000000000000000081526004016107eb906129b3565b60405180910390fd5b6107fe8383611258565b505050565b6060600061081083610d74565b61081984610eda565b61082285610bd6565b61082b866110d9565b61083487610889565b6040516020016108489594939291906136ad565b604051602081830303815290604052905061086281611311565b60405160200161087291906138af565b604051602081830303815290604052915050919050565b60606000600760008481526020019081526020016000206004015490506108af81611475565b915050919050565b6108bf611f84565b6108c882611205565b600760008381526020019081526020016000206040518060a00160405290816000820180546108f69061287d565b80601f01602080910402602001604051908101604052809291908181526020018280546109229061287d565b801561096f5780601f106109445761010080835404028352916020019161096f565b820191906000526020600020905b81548152906001019060200180831161095257829003601f168201915b505050505081526020016001820154815260200160028201548152602001600382015481526020016004820154815250509050919050565b6109b86109b2611250565b826115d6565b6109f7576040517f08c379a00000000000000000000000000000000000000000000000000000000081526004016109ee90613943565b60405180910390fd5b610a0283838361166b565b505050565b610a1081610cc2565b73ffffffffffffffffffffffffffffffffffffffff163373ffffffffffffffffffffffffffffffffffffffff1614610a7d576040517f08c379a0000000000000000000000000000000000000000000000000000000008152600401610a74906139af565b60405180910390fd5b600760008281526020019081526020016000206001016000815480929190610aa4906139fe565b9190505550610ab360066118d2565b600760008381526020019081526020016000206002016000828254610ad89190613a47565b92505081905550610ae960036118d2565b600760008381526020019081526020016000206003016000828254610b0e9190613a47565b92505081905550610b1f60086118d2565b600760008381526020019081526020016000206004016000828254610b449190613a47565b9250508190555050565b60606000610b5b83611475565b610b6484610803565b604051602001610b75929190613cd7565b6040516020818303038152906040529050610b8f81611311565b604051602001610b9f9190613d94565b604051602081830303815290604052915050919050565b610bd183838360405180602001604052806000815250610fb0565b505050565b6060600060076000848152602001908152602001600020600201549050610bfc81611475565b915050919050565b6007602052806000526040600020600091509050806000018054610c279061287d565b80601f0160208091040260200160405190810160405280929190818152602001828054610c539061287d565b8015610ca05780601f10610c7557610100808354040283529160200191610ca0565b820191906000526020600020905b815481529060010190602001808311610c8357829003601f168201915b5050505050908060010154908060020154908060030154908060040154905085565b6000806002600084815260200190815260200160002060009054906101000a900473ffffffffffffffffffffffffffffffffffffffff169050600073ffffffffffffffffffffffffffffffffffffffff168173ffffffffffffffffffffffffffffffffffffffff161415610d6b576040517f08c379a0000000000000000000000000000000000000000000000000000000008152600401610d6290613e02565b60405180910390fd5b80915050919050565b60606000600760008481526020019081526020016000206000018054610d999061287d565b80601f0160208091040260200160405190810160405280929190818152602001828054610dc59061287d565b8015610e125780601f10610de757610100808354040283529160200191610e12565b820191906000526020600020905b815481529060010190602001808311610df557829003601f168201915b5050505050905080915050919050565b60008073ffffffffffffffffffffffffffffffffffffffff168273ffffffffffffffffffffffffffffffffffffffff161415610e93576040517f08c379a0000000000000000000000000000000000000000000000000000000008152600401610e8a90613e94565b60405180910390fd5b600360008373ffffffffffffffffffffffffffffffffffffffff1673ffffffffffffffffffffffffffffffffffffffff168152602001908152602001600020549050919050565b6060600060076000848152602001908152602001600020600101549050610f0081611475565b915050919050565b606060018054610f179061287d565b80601f0160208091040260200160405190810160405280929190818152602001828054610f439061287d565b8015610f905780601f10610f6557610100808354040283529160200191610f90565b820191906000526020600020905b815481529060010190602001808311610f7357829003601f168201915b5050505050905090565b610fac610fa5611250565b8383611914565b5050565b610fc1610fbb611250565b836115d6565b611000576040517f08c379a0000000000000000000000000000000000000000000000000000000008152600401610ff790613943565b60405180910390fd5b61100c84848484611a81565b50505050565b606061101d82611205565b61102682610b4e565b9050919050565b6110376006611add565b60006110436006611af3565b905061104f3382611b01565b6040518060a0016040528083815260200160008152602001600081526020016000815260200160008152506007600083815260200190815260200160002060008201518160000190805190602001906110a9929190611fb3565b50602082015181600101556040820151816002015560608201518160030155608082015181600401559050505050565b60606000600760008481526020019081526020016000206003015490506110ff81611475565b915050919050565b6000600560008473ffffffffffffffffffffffffffffffffffffffff1673ffffffffffffffffffffffffffffffffffffffff16815260200190815260200160002060008373ffffffffffffffffffffffffffffffffffffffff1673ffffffffffffffffffffffffffffffffffffffff16815260200190815260200160002060009054906101000a900460ff16905092915050565b60007f01ffc9a7000000000000000000000000000000000000000000000000000000007bffffffffffffffffffffffffffffffffffffffffffffffffffffffff1916827bffffffffffffffffffffffffffffffffffffffffffffffffffffffff1916149050919050565b61120e81611b1f565b61124d576040517f08c379a000000000000000000000000000000000000000000000000000000000815260040161124490613e02565b60405180910390fd5b50565b600033905090565b816004600083815260200190815260200160002060006101000a81548173ffffffffffffffffffffffffffffffffffffffff021916908373ffffffffffffffffffffffffffffffffffffffff160217905550808273ffffffffffffffffffffffffffffffffffffffff166112cb83610cc2565b73ffffffffffffffffffffffffffffffffffffffff167f8c5be1e5ebec7d5bd14f71427d1e84f3dd0314c0f7b2291e5b200ac8c7c3b92560405160405180910390a45050565b606060008251141561133457604051806020016040528060008152509050611470565b600060405180606001604052806040815260200161448660409139905060006003600285516113639190613a47565b61136d9190613ee3565b60046113799190613f14565b67ffffffffffffffff81111561139257611391612576565b5b6040519080825280601f01601f1916602001820160405280156113c45781602001600182028036833780820191505090505b509050600182016020820185865187015b80821015611430576003820191508151603f8160121c168501518453600184019350603f81600c1c168501518453600184019350603f8160061c168501518453600184019350603f81168501518453600184019350506113d5565b505060038651066001811461144c576002811461145f57611467565b603d6001830353603d6002830353611467565b603d60018303535b50505080925050505b919050565b606060008214156114bd576040518060400160405280600181526020017f300000000000000000000000000000000000000000000000000000000000000081525090506115d1565b600082905060005b600082146114ef5780806114d8906139fe565b915050600a826114e89190613ee3565b91506114c5565b60008167ffffffffffffffff81111561150b5761150a612576565b5b6040519080825280601f01601f19166020018201604052801561153d5781602001600182028036833780820191505090505b5090505b600085146115ca576001826115569190613f6e565b9150600a856115659190613fa2565b60306115719190613a47565b60f81b81838151811061158757611586613fd3565b5b60200101907effffffffffffffffffffffffffffffffffffffffffffffffffffffffffffff1916908160001a905350600a856115c39190613ee3565b9450611541565b8093505050505b919050565b6000806115e283610cc2565b90508073ffffffffffffffffffffffffffffffffffffffff168473ffffffffffffffffffffffffffffffffffffffff16148061162457506116238185611107565b5b8061166257508373ffffffffffffffffffffffffffffffffffffffff1661164a846106a5565b73ffffffffffffffffffffffffffffffffffffffff16145b91505092915050565b8273ffffffffffffffffffffffffffffffffffffffff1661168b82610cc2565b73ffffffffffffffffffffffffffffffffffffffff16146116e1576040517f08c379a00000000000000000000000000000000000000000000000000000000081526004016116d890614074565b60405180910390fd5b600073ffffffffffffffffffffffffffffffffffffffff168273ffffffffffffffffffffffffffffffffffffffff161415611751576040517f08c379a000000000000000000000000000000000000000000000000000000000815260040161174890614106565b60405180910390fd5b61175c838383611b8b565b611767600082611258565b6001600360008573ffffffffffffffffffffffffffffffffffffffff1673ffffffffffffffffffffffffffffffffffffffff16815260200190815260200160002060008282546117b79190613f6e565b925050819055506001600360008473ffffffffffffffffffffffffffffffffffffffff1673ffffffffffffffffffffffffffffffffffffffff168152602001908152602001600020600082825461180e9190613a47565b92505081905550816002600083815260200190815260200160002060006101000a81548173ffffffffffffffffffffffffffffffffffffffff021916908373ffffffffffffffffffffffffffffffffffffffff160217905550808273ffffffffffffffffffffffffffffffffffffffff168473ffffffffffffffffffffffffffffffffffffffff167fddf252ad1be2c89b69c2b068fc378daa952ba7f163c4a11628f55a4df523b3ef60405160405180910390a46118cd838383611b90565b505050565b6000814244336040516020016118ea9392919061418f565b6040516020818303038152906040528051906020012060001c61190d9190613fa2565b9050919050565b8173ffffffffffffffffffffffffffffffffffffffff168373ffffffffffffffffffffffffffffffffffffffff161415611983576040517f08c379a000000000000000000000000000000000000000000000000000000000815260040161197a90614218565b60405180910390fd5b80600560008573ffffffffffffffffffffffffffffffffffffffff1673ffffffffffffffffffffffffffffffffffffffff16815260200190815260200160002060008473ffffffffffffffffffffffffffffffffffffffff1673ffffffffffffffffffffffffffffffffffffffff16815260200190815260200160002060006101000a81548160ff0219169083151502179055508173ffffffffffffffffffffffffffffffffffffffff168373ffffffffffffffffffffffffffffffffffffffff167f17307eab39ab6107e8899845ad3d59bd9653f200f220920489ca2b5937696c3183604051611a74919061210a565b60405180910390a3505050565b611a8c84848461166b565b611a9884848484611b95565b611ad7576040517f08c379a0000000000000000000000000000000000000000000000000000000008152600401611ace906142aa565b60405180910390fd5b50505050565b6001816000016000828254019250508190555050565b600081600001549050919050565b611b1b828260405180602001604052806000815250611d2c565b5050565b60008073ffffffffffffffffffffffffffffffffffffffff166002600084815260200190815260200160002060009054906101000a900473ffffffffffffffffffffffffffffffffffffffff1673ffffffffffffffffffffffffffffffffffffffff1614159050919050565b505050565b505050565b6000611bb68473ffffffffffffffffffffffffffffffffffffffff16611d87565b15611d1f578373ffffffffffffffffffffffffffffffffffffffff1663150b7a02611bdf611250565b8786866040518563ffffffff1660e01b8152600401611c01949392919061431f565b602060405180830381600087803b158015611c1b57600080fd5b505af1925050508015611c4c57506040513d601f19601f82011682018060405250810190611c499190614380565b60015b611ccf573d8060008114611c7c576040519150601f19603f3d011682016040523d82523d6000602084013e611c81565b606091505b50600081511415611cc7576040517f08c379a0000000000000000000000000000000000000000000000000000000008152600401611cbe906142aa565b60405180910390fd5b805181602001fd5b63150b7a0260e01b7bffffffffffffffffffffffffffffffffffffffffffffffffffffffff1916817bffffffffffffffffffffffffffffffffffffffffffffffffffffffff191614915050611d24565b600190505b949350505050565b611d368383611daa565b611d436000848484611b95565b611d82576040517f08c379a0000000000000000000000000000000000000000000000000000000008152600401611d79906142aa565b60405180910390fd5b505050565b6000808273ffffffffffffffffffffffffffffffffffffffff163b119050919050565b600073ffffffffffffffffffffffffffffffffffffffff168273ffffffffffffffffffffffffffffffffffffffff161415611e1a576040517f08c379a0000000000000000000000000000000000000000000000000000000008152600401611e11906143f9565b60405180910390fd5b611e2381611b1f565b15611e63576040517f08c379a0000000000000000000000000000000000000000000000000000000008152600401611e5a90614465565b60405180910390fd5b611e6f60008383611b8b565b6001600360008473ffffffffffffffffffffffffffffffffffffffff1673ffffffffffffffffffffffffffffffffffffffff1681526020019081526020016000206000828254611ebf9190613a47565b92505081905550816002600083815260200190815260200160002060006101000a81548173ffffffffffffffffffffffffffffffffffffffff021916908373ffffffffffffffffffffffffffffffffffffffff160217905550808273ffffffffffffffffffffffffffffffffffffffff16600073ffffffffffffffffffffffffffffffffffffffff167fddf252ad1be2c89b69c2b068fc378daa952ba7f163c4a11628f55a4df523b3ef60405160405180910390a4611f8060008383611b90565b5050565b6040518060a0016040528060608152602001600081526020016000815260200160008152602001600081525090565b828054611fbf9061287d565b90600052602060002090601f016020900481019282611fe15760008555612028565b82601f10611ffa57805160ff1916838001178555612028565b82800160010185558215612028579182015b8281111561202757825182559160200191906001019061200c565b5b5090506120359190612039565b5090565b5b8082111561205257600081600090555060010161203a565b5090565b6000604051905090565b600080fd5b600080fd5b60007fffffffff0000000000000000000000000000000000000000000000000000000082169050919050565b61209f8161206a565b81146120aa57600080fd5b50565b6000813590506120bc81612096565b92915050565b6000602082840312156120d8576120d7612060565b5b60006120e6848285016120ad565b91505092915050565b60008115159050919050565b612104816120ef565b82525050565b600060208201905061211f60008301846120fb565b92915050565b600081519050919050565b600082825260208201905092915050565b60005b8381101561215f578082015181840152602081019050612144565b8381111561216e576000848401525b50505050565b6000601f19601f8301169050919050565b600061219082612125565b61219a8185612130565b93506121aa818560208601612141565b6121b381612174565b840191505092915050565b600060208201905081810360008301526121d88184612185565b905092915050565b6000819050919050565b6121f3816121e0565b81146121fe57600080fd5b50565b600081359050612210816121ea565b92915050565b60006020828403121561222c5761222b612060565b5b600061223a84828501612201565b91505092915050565b600073ffffffffffffffffffffffffffffffffffffffff82169050919050565b600061226e82612243565b9050919050565b61227e81612263565b82525050565b60006020820190506122996000830184612275565b92915050565b6122a881612263565b81146122b357600080fd5b50565b6000813590506122c58161229f565b92915050565b600080604083850312156122e2576122e1612060565b5b60006122f0858286016122b6565b925050602061230185828601612201565b9150509250929050565b600082825260208201905092915050565b600061232782612125565b612331818561230b565b9350612341818560208601612141565b61234a81612174565b840191505092915050565b61235e816121e0565b82525050565b600060a0830160008301518482036000860152612381828261231c565b91505060208301516123966020860182612355565b5060408301516123a96040860182612355565b5060608301516123bc6060860182612355565b5060808301516123cf6080860182612355565b508091505092915050565b600060208201905081810360008301526123f48184612364565b905092915050565b60008060006060848603121561241557612414612060565b5b6000612423868287016122b6565b9350506020612434868287016122b6565b925050604061244586828701612201565b9150509250925092565b612458816121e0565b82525050565b600060a08201905081810360008301526124788188612185565b9050612487602083018761244f565b612494604083018661244f565b6124a1606083018561244f565b6124ae608083018461244f565b9695505050505050565b6000602082840312156124ce576124cd612060565b5b60006124dc848285016122b6565b91505092915050565b60006020820190506124fa600083018461244f565b92915050565b612509816120ef565b811461251457600080fd5b50565b60008135905061252681612500565b92915050565b6000806040838503121561254357612542612060565b5b6000612551858286016122b6565b925050602061256285828601612517565b9150509250929050565b600080fd5b600080fd5b7f4e487b7100000000000000000000000000000000000000000000000000000000600052604160045260246000fd5b6125ae82612174565b810181811067ffffffffffffffff821117156125cd576125cc612576565b5b80604052505050565b60006125e0612056565b90506125ec82826125a5565b919050565b600067ffffffffffffffff82111561260c5761260b612576565b5b61261582612174565b9050602081019050919050565b82818337600083830152505050565b600061264461263f846125f1565b6125d6565b9050828152602081018484840111156126605761265f612571565b5b61266b848285612622565b509392505050565b600082601f8301126126885761268761256c565b5b8135612698848260208601612631565b91505092915050565b600080600080608085870312156126bb576126ba612060565b5b60006126c9878288016122b6565b94505060206126da878288016122b6565b93505060406126eb87828801612201565b925050606085013567ffffffffffffffff81111561270c5761270b612065565b5b61271887828801612673565b91505092959194509250565b600067ffffffffffffffff82111561273f5761273e612576565b5b61274882612174565b9050602081019050919050565b600061276861276384612724565b6125d6565b90508281526020810184848401111561278457612783612571565b5b61278f848285612622565b509392505050565b600082601f8301126127ac576127ab61256c565b5b81356127bc848260208601612755565b91505092915050565b6000602082840312156127db576127da612060565b5b600082013567ffffffffffffffff8111156127f9576127f8612065565b5b61280584828501612797565b91505092915050565b6000806040838503121561282557612824612060565b5b6000612833858286016122b6565b9250506020612844858286016122b6565b9150509250929050565b7f4e487b7100000000000000000000000000000000000000000000000000000000600052602260045260246000fd5b6000600282049050600182168061289557607f821691505b602082108114156128a9576128a861284e565b5b50919050565b7f4552433732313a20617070726f76616c20746f2063757272656e74206f776e6560008201527f7200000000000000000000000000000000000000000000000000000000000000602082015250565b600061290b602183612130565b9150612916826128af565b604082019050919050565b6000602082019050818103600083015261293a816128fe565b9050919050565b7f4552433732313a20617070726f76652063616c6c6572206973206e6f7420746f60008201527f6b656e206f776e6572206e6f7220617070726f76656420666f7220616c6c0000602082015250565b600061299d603e83612130565b91506129a882612941565b604082019050919050565b600060208201905081810360008301526129cc81612990565b9050919050565b600081905092915050565b7f3c7376672077696474683d2231303030707822206865696768743d223130303060008201527f7078222076696577426f783d223020302031303030203130303022207665727360208201527f696f6e3d22312e312220786d6c6e733d22687474703a2f2f7777772e77332e6f60408201527f72672f323030302f7376672220786d6c6e733a786c696e6b3d22687474703a2f60608201527f2f7777772e77332e6f72672f313939392f786c696e6b223e0000000000000000608082015250565b6000612aac6098836129d3565b9150612ab7826129de565b609882019050919050565b7f3c646566733e0000000000000000000000000000000000000000000000000000600082015250565b6000612af86006836129d3565b9150612b0382612ac2565b600682019050919050565b7f3c6c696e6561724772616469656e742078313d22362e3533393439323434252260008201527f2079313d2235312e3830303939353625222078323d2239312e3239313833373760208201527f25222079323d2234382e3531383339373625222069643d226267223e00000000604082015250565b6000612b90605c836129d3565b9150612b9b82612b0e565b605c82019050919050565b7f3c73746f702073746f702d636f6c6f723d2223303030303030222073746f702d60008201527f6f7061636974793d22302e33383937333732313622206f66667365743d22302560208201527f223e3c2f73746f703e0000000000000000000000000000000000000000000000604082015250565b6000612c286049836129d3565b9150612c3382612ba6565b604982019050919050565b7f3c73746f702073746f702d636f6c6f723d2223303030303030222073746f702d60008201527f6f7061636974793d223022206f66667365743d2231303025223e3c2f73746f7060208201527f3e00000000000000000000000000000000000000000000000000000000000000604082015250565b6000612cc06041836129d3565b9150612ccb82612c3e565b604182019050919050565b7f3c2f6c696e6561724772616469656e743e000000000000000000000000000000600082015250565b6000612d0c6011836129d3565b9150612d1782612cd6565b601182019050919050565b7f3c2f646566733e00000000000000000000000000000000000000000000000000600082015250565b6000612d586007836129d3565b9150612d6382612d22565b600782019050919050565b7f3c67207374726f6b653d226e6f6e6522207374726f6b652d77696474683d223160008201527f222066696c6c3d226e6f6e65222066696c6c2d72756c653d226576656e6f646460208201527f223e000000000000000000000000000000000000000000000000000000000000604082015250565b6000612df06042836129d3565b9150612dfb82612d6e565b604282019050919050565b7f3c72656374207374726f6b653d222338353141453622207374726f6b652d776960008201527f6474683d223530222066696c6c3d22233545313142322220783d22323522207960208201527f3d223235222077696474683d2239353022206865696768743d2239353022207260408201527f783d22323137223e3c2f726563743e0000000000000000000000000000000000606082015250565b6000612eae606f836129d3565b9150612eb982612e06565b606f82019050919050565b7f3c7465787420666f6e742d66616d696c793d22417269616c2d426f6c644d542c60008201527f20417269616c2220666f6e742d73697a653d223132302220666f6e742d77656960208201527f6768743d22626f6c6422206c65747465722d73706163696e673d222d342e343260408201527f373038303632222066696c6c3d2223464646464646223e000000000000000000606082015250565b6000612f6c6077836129d3565b9150612f7782612ec4565b607782019050919050565b7f3c747370616e20783d223133302220793d22323036223e000000000000000000600082015250565b6000612fb86017836129d3565b9150612fc382612f82565b601782019050919050565b6000612fd982612125565b612fe381856129d3565b9350612ff3818560208601612141565b80840191505092915050565b7f3c2f747370616e3e000000000000000000000000000000000000000000000000600082015250565b60006130356008836129d3565b915061304082612fff565b600882019050919050565b7f3c2f746578743e00000000000000000000000000000000000000000000000000600082015250565b60006130816007836129d3565b915061308c8261304b565b600782019050919050565b7f3c726563742066696c6c3d2275726c28236267292220783d2235302220793d2260008201527f323436222077696474683d2239303122206865696768743d22313731223e3c2f60208201527f726563743e000000000000000000000000000000000000000000000000000000604082015250565b60006131196045836129d3565b915061312482613097565b604582019050919050565b7f3c7465787420666f6e742d66616d696c793d22417269616c2d426f6c644d542c60008201527f20417269616c2220666f6e742d73697a653d223132302220666f6e742d77656960208201527f6768743d22626f6c6422206c65747465722d73706163696e673d222d342e343260408201527f373038303632222066696c6c3d2223354645324632223e000000000000000000606082015250565b60006131d76077836129d3565b91506131e28261312f565b607782019050919050565b7f3c747370616e20783d223133302220793d22333733223e4c6576656c203d2000600082015250565b6000613223601f836129d3565b915061322e826131ed565b601f82019050919050565b7f3c7465787420666f6e742d66616d696c793d22417269616c2d426f6c644d542c60008201527f20417269616c2220666f6e742d73697a653d223132302220666f6e742d77656960208201527f6768743d22626f6c6422206c65747465722d73706163696e673d222d342e343260408201527f373038303632222066696c6c3d2223463044313738223e000000000000000000606082015250565b60006132e16077836129d3565b91506132ec82613239565b607782019050919050565b7f3c747370616e20783d223133302220793d22353438223e5370656564203d2000600082015250565b600061332d601f836129d3565b9150613338826132f7565b601f82019050919050565b7f3c726563742066696c6c3d2275726c28236267292220783d2235302220793d2260008201527f363034222077696474683d2239303122206865696768743d22313731223e3c2f60208201527f726563743e000000000000000000000000000000000000000000000000000000604082015250565b60006133c56045836129d3565b91506133d082613343565b604582019050919050565b7f3c7465787420666f6e742d66616d696c793d22417269616c2d426f6c644d542c60008201527f20417269616c2220666f6e742d73697a653d223132302220666f6e742d77656960208201527f6768743d22626f6c6422206c65747465722d73706163696e673d222d342e343260408201527f373038303632222066696c6c3d2223464635363536223e000000000000000000606082015250565b60006134836077836129d3565b915061348e826133db565b607782019050919050565b7f3c747370616e20783d223133302220793d22373330223e537472656e6774682060008201527f3d20000000000000000000000000000000000000000000000000000000000000602082015250565b60006134f56022836129d3565b915061350082613499565b602282019050919050565b7f3c7465787420666f6e742d66616d696c793d22417269616c2d426f6c644d542c60008201527f20417269616c2220666f6e742d73697a653d223132302220666f6e742d77656960208201527f6768743d22626f6c6422206c65747465722d73706163696e673d222d342e343260408201527f373038303632222066696c6c3d2223364246433938223e000000000000000000606082015250565b60006135b36077836129d3565b91506135be8261350b565b607782019050919050565b7f3c747370616e20783d223133302220793d22383937223e4c696665203d200000600082015250565b60006135ff601e836129d3565b915061360a826135c9565b601e82019050919050565b7f3c2f673e00000000000000000000000000000000000000000000000000000000600082015250565b600061364b6004836129d3565b915061365682613615565b600482019050919050565b7f3c2f7376673e0000000000000000000000000000000000000000000000000000600082015250565b60006136976006836129d3565b91506136a282613661565b600682019050919050565b60006136b882612a9f565b91506136c382612aeb565b91506136ce82612b83565b91506136d982612c1b565b91506136e482612cb3565b91506136ef82612cff565b91506136fa82612d4b565b915061370582612de3565b915061371082612ea1565b915061371b82612f5f565b915061372682612fab565b91506137328288612fce565b915061373d82613028565b915061374882613074565b91506137538261310c565b915061375e826131ca565b915061376982613216565b91506137758287612fce565b915061378082613028565b915061378b82613074565b9150613796826132d4565b91506137a182613320565b91506137ad8286612fce565b91506137b882613028565b91506137c382613074565b91506137ce826133b8565b91506137d982613476565b91506137e4826134e8565b91506137f08285612fce565b91506137fb82613028565b915061380682613074565b9150613811826135a6565b915061381c826135f2565b91506138288284612fce565b915061383382613028565b915061383e82613074565b91506138498261363e565b91506138548261368a565b91508190509695505050505050565b7f646174613a696d6167652f7376672b786d6c3b6261736536342c000000000000600082015250565b6000613899601a836129d3565b91506138a482613863565b601a82019050919050565b60006138ba8261388c565b91506138c68284612fce565b915081905092915050565b7f4552433732313a2063616c6c6572206973206e6f7420746f6b656e206f776e6560008201527f72206e6f7220617070726f766564000000000000000000000000000000000000602082015250565b600061392d602e83612130565b9150613938826138d1565b604082019050919050565b6000602082019050818103600083015261395c81613920565b9050919050565b7f6e6f7420746865206f776e657200000000000000000000000000000000000000600082015250565b6000613999600d83612130565b91506139a482613963565b602082019050919050565b600060208201905081810360008301526139c88161398c565b9050919050565b7f4e487b7100000000000000000000000000000000000000000000000000000000600052601160045260246000fd5b6000613a09826121e0565b91507fffffffffffffffffffffffffffffffffffffffffffffffffffffffffffffffff821415613a3c57613a3b6139cf565b5b600182019050919050565b6000613a52826121e0565b9150613a5d836121e0565b9250827fffffffffffffffffffffffffffffffffffffffffffffffffffffffffffffffff03821115613a9257613a916139cf565b5b828201905092915050565b7f7b00000000000000000000000000000000000000000000000000000000000000600082015250565b6000613ad36001836129d3565b9150613ade82613a9d565b600182019050919050565b7f226e616d65223a2022436861696e20426174746c657320230000000000000000600082015250565b6000613b1f6018836129d3565b9150613b2a82613ae9565b601882019050919050565b7f222c000000000000000000000000000000000000000000000000000000000000600082015250565b6000613b6b6002836129d3565b9150613b7682613b35565b600282019050919050565b7f226465736372697074696f6e223a2022426174746c6573206f6e20636861696e60008201527f222c000000000000000000000000000000000000000000000000000000000000602082015250565b6000613bdd6022836129d3565b9150613be882613b81565b602282019050919050565b7f22696d616765223a202200000000000000000000000000000000000000000000600082015250565b6000613c29600a836129d3565b9150613c3482613bf3565b600a82019050919050565b7f2200000000000000000000000000000000000000000000000000000000000000600082015250565b6000613c756001836129d3565b9150613c8082613c3f565b600182019050919050565b7f7d00000000000000000000000000000000000000000000000000000000000000600082015250565b6000613cc16001836129d3565b9150613ccc82613c8b565b600182019050919050565b6000613ce282613ac6565b9150613ced82613b12565b9150613cf98285612fce565b9150613d0482613b5e565b9150613d0f82613bd0565b9150613d1a82613c1c565b9150613d268284612fce565b9150613d3182613c68565b9150613d3c82613cb4565b91508190509392505050565b7f646174613a6170706c69636174696f6e2f6a736f6e3b6261736536342c000000600082015250565b6000613d7e601d836129d3565b9150613d8982613d48565b601d82019050919050565b6000613d9f82613d71565b9150613dab8284612fce565b915081905092915050565b7f4552433732313a20696e76616c696420746f6b656e2049440000000000000000600082015250565b6000613dec601883612130565b9150613df782613db6565b602082019050919050565b60006020820190508181036000830152613e1b81613ddf565b9050919050565b7f4552433732313a2061646472657373207a65726f206973206e6f74206120766160008201527f6c6964206f776e65720000000000000000000000000000000000000000000000602082015250565b6000613e7e602983612130565b9150613e8982613e22565b604082019050919050565b60006020820190508181036000830152613ead81613e71565b9050919050565b7f4e487b7100000000000000000000000000000000000000000000000000000000600052601260045260246000fd5b6000613eee826121e0565b9150613ef9836121e0565b925082613f0957613f08613eb4565b5b828204905092915050565b6000613f1f826121e0565b9150613f2a836121e0565b9250817fffffffffffffffffffffffffffffffffffffffffffffffffffffffffffffffff0483118215151615613f6357613f626139cf565b5b828202905092915050565b6000613f79826121e0565b9150613f84836121e0565b925082821015613f9757613f966139cf565b5b828203905092915050565b6000613fad826121e0565b9150613fb8836121e0565b925082613fc857613fc7613eb4565b5b828206905092915050565b7f4e487b7100000000000000000000000000000000000000000000000000000000600052603260045260246000fd5b7f4552433732313a207472616e736665722066726f6d20696e636f72726563742060008201527f6f776e6572000000000000000000000000000000000000000000000000000000602082015250565b600061405e602583612130565b915061406982614002565b604082019050919050565b6000602082019050818103600083015261408d81614051565b9050919050565b7f4552433732313a207472616e7366657220746f20746865207a65726f2061646460008201527f7265737300000000000000000000000000000000000000000000000000000000602082015250565b60006140f0602483612130565b91506140fb82614094565b604082019050919050565b6000602082019050818103600083015261411f816140e3565b9050919050565b6000819050919050565b61414161413c826121e0565b614126565b82525050565b60008160601b9050919050565b600061415f82614147565b9050919050565b600061417182614154565b9050919050565b61418961418482612263565b614166565b82525050565b600061419b8286614130565b6020820191506141ab8285614130565b6020820191506141bb8284614178565b601482019150819050949350505050565b7f4552433732313a20617070726f766520746f2063616c6c657200000000000000600082015250565b6000614202601983612130565b915061420d826141cc565b602082019050919050565b60006020820190508181036000830152614231816141f5565b9050919050565b7f4552433732313a207472616e7366657220746f206e6f6e20455243373231526560008201527f63656976657220696d706c656d656e7465720000000000000000000000000000602082015250565b6000614294603283612130565b915061429f82614238565b604082019050919050565b600060208201905081810360008301526142c381614287565b9050919050565b600081519050919050565b600082825260208201905092915050565b60006142f1826142ca565b6142fb81856142d5565b935061430b818560208601612141565b61431481612174565b840191505092915050565b60006080820190506143346000830187612275565b6143416020830186612275565b61434e604083018561244f565b818103606083015261436081846142e6565b905095945050505050565b60008151905061437a81612096565b92915050565b60006020828403121561439657614395612060565b5b60006143a48482850161436b565b91505092915050565b7f4552433732313a206d696e7420746f20746865207a65726f2061646472657373600082015250565b60006143e3602083612130565b91506143ee826143ad565b602082019050919050565b60006020820190508181036000830152614412816143d6565b9050919050565b7f4552433732313a20746f6b656e20616c7265616479206d696e74656400000000600082015250565b600061444f601c83612130565b915061445a82614419565b602082019050919050565b6000602082019050818103600083015261447e81614442565b905091905056fe4142434445464748494a4b4c4d4e4f505152535455565758595a6162636465666768696a6b6c6d6e6f707172737475767778797a303132333435363738392b2fa2646970667358221220f9f8575bea533b8272ad8dc77d4677702801f5540b70657497b9d0db32cbe15364736f6c63430008090033",
  "linkReferences": {},
  "deployedLinkReferences": {}
}